:100000000C9436000C9411070C9411070C941107F2
:100010000C9411070C9411070C9411070C9404050F
:100020000C9411070C94D7040C9411070C9411072D
:100030000C9411070C9411070C9411070C941107E0
:100040000C9411070C9411070C9411070C941107D0
:100050000C941107006000DE8000DE00E0000E2A34
:1000600000E000E78000E700E8000E2C11241FBE2E
:10007000CFE5D8E0DEBFCDBFE4E5F0E040E017C05B
:10008000B591A59135912591059107FD0CC09591EC
:100090008591EF01F92FE82F05900D92A217B30774
:1000A000D9F7FE0104C01D92A217B307E1F7EC36A1
:1000B000F40731F70E9400040C945E00F894FFCF1F
:1000C0000D0A7279727972797279727972797279AC
:1000D00072797279727972797279727972797279C8
:1000E0007279200074686520717569636B20627293
:1000F0006F776E20666F78206A756D7073206F76EB
:10010000657220746865206C617A7920646F67205D
:10011000313233343536373839300A0D0072747461
:100120007920343520626175640A0D007368696650
:10013000742031373020487A0A0D00727972797252
:100140007972797279727972797279727972797257
:100150007972797279727972797279727972792099
:01016000009E
:10016100646D717469607A6B6F7260606C637C7DC1
:10017100767773616A70756766786E7E60606079A4
:100181006063796E69616D7A74666B6F727C6C788D
:0B01910076776A6570677E737D75717C
:10019C002F923F924F925F926F927F928F929F928B
:1001AC00AF92BF92CF92DF92EF92FF920F931F9379
:1001BC00CF93DF93CDB7DEB7E0970FB6F894DEBFE1
:1001CC000FBECDBF3A2C4B2C5C2C6D2C7E2C8F2C67
:1001DC00902E212E0CE10E9426066894AA24A6F8E3
:1001EC000F2EF8E7BF2EF02D0F2EFDE7CF2EF02DA2
:1001FC00DD24D394E12CF12C00E010E00E94A70642
:10020C0029833A834B835C836D837E838F839887AA
:10021C00232D342D452D562D672D782D892D922D7E
:10022C000CE10E94260600E00E94A70629873A8767
:10023C004B875C876D877E878F87988B99818A81A6
:10024C002B812C812D812E812F8128858F738064A9
:10025C00998B8A8B1B8A1C8A1D8A1E8A1F8A188E70
:10026C0029813A814B815C816D817E818F8198855A
:10027C000EE00E94F1053F733064298F3A8F1B8E7C
:10028C001C8E1D8E1E8E1F8E18A299858A852B851D
:10029C002C852D852E852F8528898F73806899A3B1
:1002AC008AA31BA21CA21DA21EA21FA218A62985EE
:1002BC003A854B855C856D857E858F8598890E94F6
:1002CC00F1053F73306829A73AA71BA61CA61DA6EB
:1002DC001EA61FA618AAEEECF0E080E091E2918336
:1002EC00808339892A898B898C898D898E898F891C
:1002FC00888D32832383398D2A8D8B8D8C8D8D8DBA
:10030C008E8D8F8D88A13483258339A12AA18BA151
:10031C008CA18DA18EA18FA188A53683278339A5A9
:10032C002AA58BA58CA58DA58EA58FA588A9308710
:10033C00218780E090EC9387828780E090EE958710
:10034C00848780E090E29787868788E08093C90055
:10035C00E0960FB6F894DEBF0FBECDBFDF91CF9104
:10036C001F910F91FF90EF90DF90CF90BF90AF90C7
:10037C009F908F907F906F905F904F903F902F90B9
:02038C000895D2
:10038E00CF92DF92EF926B01E82E20E057C08FEFF5
:10039E00C81AD80AE80A892F9D3041F4E22FF0E0FE
:1003AE00ED59FF4F88E680832F5F48C09A3041F4A5
:1003BE00E22FF0E0ED59FF4F82E680832F5F3EC0C3
:1003CE003FE9390F3A3110F4892F8F758032F9F0E9
:1003DE0080347CF49091E60091111BC0E22FF0E086
:1003EE00ED59FF4F9BE7908391E09093E6002F5FCE
:1003FE0010C09091E600992361F0E22FF0E0ED59E4
:10040E00FF4F9FE790831092E6002F5F02C010927D
:10041E00E60080529AF08C3388F441E0420F30E0CF
:10042E00082E000C990BA0E08F599E4FAF4FFC0188
:10043E008491F901ED59FF4F8083242FF601949199
:10044E00E7FC9081992319F0243608F4A0CFE22F0F
:10045E00F0E0ED59FF4F10821092620083EB95E0B1
:10046E00909361008093600078940E94B30681118E
:0A047E00FCCFEF90DF90CF900895BF
:1004880088B38B7F88BB88B38E7F88BB88B38D7F0A
:1004980088BB88B3826088BB88B38D7F88BB88B3EC
:1004A800826088BB88B38D7F88BB88B3826088BB35
:1004B80088B38D7F88BB88B3826088BB88B381602E
:1004C80088BB88B38D7F88BB88B3826088BB88B3BC
:1004D8008E7F88BB88B38D7F88BB88B3826088BBDA
:1004E80088B38D7F88BB88B3826088BB88B38D7FD3
:1004F80088BB88B3826088BB88B38D7F88BB88B38C
:10050800826088BB88B38D7F88BB88B3826088BBD4
:1005180088B38D7F88BB88B3826088BB88B38D7FA2
:1005280088BB88B3826088BB88B38D7F88BB88B35B
:10053800826088BB88B38D7F88BB88B3826088BBA4
:1005480088B38D7F88BB88B3826088BB88B38D7F72
:1005580088BB88B3826088BB88B3846088BB82B359
:0C0568008F7D82BB82B3806482BB08954B
:1005740088B38B7F88BB88B38E7F88BB88B38D7F1D
:1005840088BB88B3826088BB88B38D7F88BB88B3FF
:10059400826088BB88B38D7F88BB88B3826088BB48
:1005A40088B38D7F88BB88B3826088BB88B38D7F16
:1005B40088BB88B3826088BB88B38D7F88BB88B3CF
:1005C400826088BB88B38D7F88BB88B3826088BB18
:1005D40088B38D7F88BB88B3826088BB88B38D7FE6
:1005E40088BB88B3826088BB88B38D7F88BB88B39F
:1005F400826088BB88B38D7F88BB88B3826088BBE8
:1006040088B38D7F88BB88B3826088BB88B38D7FB5
:1006140088BB88B3826088BB88B38D7F88BB88B36E
:10062400826088BB88B38D7F88BB88B3826088BBB7
:1006340088B38D7F88BB88B3826088BB88B38460AD
:1006440088BB82B38F7B82BB82B3806282BB0895F6
:1006540010C00E94F00658F00E94E90640F029F408
:100664005F3F29F00C94040751110C94F8060C9484
:100674000E070E94720568F39923B1F3552391F391
:10068400951B550BBB27AA2762177307840738F0FD
:100694009F5F5F4F220F331F441FAA1FA9F335D05A
:1006A4000E2E3AF0E0E832D091505040E695001C0E
:1006B400CAF72BD0FE2F29D0660F771F881FBB1FC8
:1006C400261737074807AB07B0E809F0BB0B802DA6
:1006D400BF01FF2793585F4F3AF09E3F510578F0D2
:1006E4000C9404070C94F8065F3FE4F3983ED4F3AB
:1006F400869577956795B795F7959F5FC9F7880FA6
:10070400911D9695879597F90895E1E0660F771FF7
:10071400881FBB1F621773078407BA0720F0621B88
:0E072400730B840BBA0BEE1F88F7E095089557
:1007320011C00E94E90638F00E94F00620F039F458
:100742009F3F19F426F40C940E070EF4E095E7FB94
:100752000C940407E92F0E94720558F3BA17620736
:1007620073078407950720F079F4A6F50C94F70631
:100772000EF4E0950B2EBA2FA02D0B01B9019001BA
:100782000C01CA01A0011124FF27591B99F0593FFE
:1007920050F4503E68F11A16F040A22F232F342F46
:1007A2004427585FF3CF469537952795A795F04094
:1007B2005395C9F77EF41F16BA0B620B730B840BA9
:1007C200BAF09150A1F0FF0FBB1F661F771F881F61
:1007D200C2F70EC0BA0F621F731F841F48F48795B9
:1007E20077956795B795F7959E3F08F0B0CF9395AB
:0E07F200880F08F09927EE0F979587950895C8
:1008000081B3806181BB82B3806182BB81B380622E
:1008100081BB81B3806481BBF89464E771ED85E3AB
:1008200092E40E942B050E940D060F2EF2EBAF2ED4
:10083000F02D0F2EFAEABF2EF02D0F2EF8E9CF2E55
:10084000F02DD12CE12CF12C00E010E028E03AEA68
:1008500048E950E060E070E080E090E00E94CE0067
:100860000E94D20602C00E94FE060E94C8068111A4
:10087000FACF0E94DB060E94940560EC70E080E0F5
:100880000E94C70164EE70E080E00E94C7016DE144
:1008900071E080E00E94C7016CE271E080E00E949C
:0E08A000C7016BE371E080E00E94C701B5CF95
:1008AE0088249924F401E401B0E49F93AA279A15B1
:1008BE008B049C04ED05FE05CF05D007A10798F427
:1008CE00AD2FDC2FCF2FFE2FE92D982C892E982FB0
:1008DE00872F762F652F542F432F322F2227B85074
:1008EE0031F7BF9127C01B2EBF91BB27220F331F9D
:1008FE00441F551F661F771F881F991F881C991C40
:10090E00EE1FFF1FCC1FDD1FAA1FBB1F8A149B04E7
:10091E00EC05FD05CE05DF05A007B10748F08A18E6
:10092E009B08EC09FD09CE09DF09A00BB10B216074
:10093E001A94E1F62EF49401AF01BE01CD01000C24
:02094E0008950A
:100950000E947A0588F09F5798F0B92F9927B751D0
:10096000B0F0E1F0660F771F881F991F1AF0BA9553
:10097000C9F714C0B13091F00E94F706B1E00895B4
:100980000C94F706672F782F8827B85F39F0B93FA6
:10099000CCF3869577956795B395D9F73EF4909506
:0E09A0008095709561957F4F8F4F9F4F089502
:1009AE001F920F920FB60F9211242F933F934F93D6
:1009BE005F936F937F938F939F93AF93BF93EF93B9
:1009CE00FF938091E4009091E5009DBD8CBDE09178
:1009DE006000F09161000995FF91EF91BF91AF9189
:1009EE009F918F917F916F915F914F913F912F9139
:0A09FE000F900FBE0F901F90189588
:100A08001F920F920FB60F9211242F933F934F937B
:100A18005F936F937F938F939F93AF93BF93EF935E
:100A2800FF93E0916000F09161000995FF91EF91CB
:100A3800BF91AF919F918F917F916F915F914F91EE
:0E0A48003F912F910F900FBE0F901F901895A9
:100A56009B01AC018EB588608EBD8EB582608EBD61
:100A660089B7806189BF60E070E081EE99E40E94F9
:100A76000A0720E030E040E85FE30E94E2060E94B9
:100A8600A8047093E3006093E2008091E2009091E5
:080A9600E3009BBD8ABD089539
:100A9E008091E0009091E100992324F488B3816065
:100AAE0088BB03C088B38E7F88BB8091E000909195
:100ABE00E100880F991F9093E1008093E0008091F0
:100ACE00E70081508093E7008EEB96E09093DF0075
:060ADE008093DE00089584
:100AE40057FD9058440F551F59F05F3F71F04795DB
:100AF400880F97FB991F61F09F3F79F087950895C0
:100B0400121613061406551FF2CF4695F1DF08C0DE
:100B1400161617061806991FF1CF869571056105FB
:040B24000894089594
:100B2800E0E007C0AE2FB0E0AD59BF4F8FE78C9320
:100B3800EF5FE031B8F31092E600F0E0ED59FF4FB7
:100B480010821092620083EB95E09093610080938D
:0E0B5800600078940E94B3068111FCCF0895CE
:100B6600E091620081E08E0F80936200F0E0ED5923
:100B7600FF4F80818093C700811107C083E197E012
:100B8600909361008093600008950E94BA028FE3FB
:0C0B960096E09093610080936000089549
:100BA20088B38B7F88BB8091C800E82FF0E0EE0FFE
:100BB200FF1FE253FF4F208131813093E1002093E8
:100BC200E0008F5F8093C80080E18093E7008FE4AC
:0C0BD20095E09093DF008093DE00089512
:100BDE0097FB10F8169400080F93083098F0085001
:100BEE00232F342F452F562F672F782F892F902D97
:100BFE00F4CF059497958795779567955795479573
:0C0C0E00379527950A95AAF70F910895D5
:100C1A0087B3846087BB87B3816087BB87B38260F1
:100C2A0087BB88B3846088BB88B3826088BB88B37B
:100C3A00816088BB84E197E09093DF008093DE00B7
:020C4A0008950B
:100C4C000F93083090F0982F872F762F652F542F05
:100C5C00432F322F22270850F4CF220F331F441F6B
:100C6C00551F661F771F881F991F0A95B2F70F91A2
:020C7C000895D9
:100C7E008091C70080FF03C00E94440202C00E9400
:100C8E00BA028091C70086958093C700811106C075
:0E0C9E0083EB95E090936100809360000895D1
:100CAC0088B3846088BB9091C8008091C900981764
:100CBC0038F084E197E09093DF008093DE00089594
:0E0CCC0081ED95E09093DF008093DE000895A7
:100CDA0088B3826088BB8091E700811107C086E5EE
:100CEA0096E09093DF008093DE0008958FE495E00C
:0A0CFA009093DF008093DE00089560
:100D040088B3846088BB88B3826088BB88B3816001
:100D140088BB1092C80081ED95E09093DF0080932A
:040D2400DE00089550
:100D2800092E0394000C11F4882352F0BB0F40F4F1
:100D3800BF2B11F460FF04C06F5F7F4F8F4F9F4F31
:020D480008950C
:100D4A00689401C0E8948F929F92CF93DF930E9498
:0C0D5A005704DF91CF919F908F90089577
:100D6600A89581E0209160003091610023513740C1
:060D760009F480E008957D
:100D7C0088B38D7F88BB8DE696E09093DF008093DF
:040D8C00DE000895E8
:100D900081E02091DE003091DF002451374009F4DA
:040DA00080E0089552
:100DA4001092C80082E896E09093DF008093DE0002
:020DB4000895A0
:0E0DB60083E197E090936100809360000895C0
:0E0DC4005058BB27AA270E9499030C9494064E
:0E0DD20000240A94161617061806090608953E
:0E0DE00000240A941216130614060506089540
:0E0DEE00E894BB2766277727CB0197F9089575
:0C0DFC00E091DE00F091DF000995089501
:0C0E080097F99F6780E870E060E00895B3
:080E14000E942A030C949406CD
:060E1C009FEF80EC089539
:040E22000C9400002C
:020E260008952D
:020E280008952B
:020E2A001407AB
:010E2C0010B5
:00000001FF
